{
  "_format": "hh-sol-artifact-1",
  "contractName": "DAO",
  "sourceName": "contracts/DAO.sol",
  "abi": [
    {
      "inputs": [
        {
          "internalType": "uint256",
          "name": "contributionTime",
          "type": "uint256"
        },
        {
          "internalType": "uint256",
          "name": "_voteTime",
          "type": "uint256"
        },
        {
          "internalType": "uint256",
          "name": "_quorum",
          "type": "uint256"
        }
      ],
      "stateMutability": "nonpayable",
      "type": "constructor"
    },
    {
      "inputs": [],
      "name": "admin",
      "outputs": [
        {
          "internalType": "address",
          "name": "",
          "type": "address"
        }
      ],
      "stateMutability": "view",
      "type": "function"
    },
    {
      "inputs": [],
      "name": "availableFunds",
      "outputs": [
        {
          "internalType": "uint256",
          "name": "",
          "type": "uint256"
        }
      ],
      "stateMutability": "view",
      "type": "function"
    },
    {
      "inputs": [
        {
          "internalType": "uint256",
          "name": "_amount",
          "type": "uint256"
        }
      ],
      "name": "contribute",
      "outputs": [],
      "stateMutability": "payable",
      "type": "function"
    },
    {
      "inputs": [],
      "name": "contributionEnd",
      "outputs": [
        {
          "internalType": "uint256",
          "name": "",
          "type": "uint256"
        }
      ],
      "stateMutability": "view",
      "type": "function"
    },
    {
      "inputs": [
        {
          "internalType": "string",
          "name": "name",
          "type": "string"
        },
        {
          "internalType": "uint256",
          "name": "amount",
          "type": "uint256"
        },
        {
          "internalType": "address payable",
          "name": "recipient",
          "type": "address"
        }
      ],
      "name": "createProposal",
      "outputs": [],
      "stateMutability": "nonpayable",
      "type": "function"
    },
    {
      "inputs": [
        {
          "internalType": "uint256",
          "name": "proposalId",
          "type": "uint256"
        }
      ],
      "name": "executeProposal",
      "outputs": [],
      "stateMutability": "nonpayable",
      "type": "function"
    },
    {
      "inputs": [
        {
          "internalType": "address",
          "name": "",
          "type": "address"
        }
      ],
      "name": "investors",
      "outputs": [
        {
          "internalType": "bool",
          "name": "",
          "type": "bool"
        }
      ],
      "stateMutability": "view",
      "type": "function"
    },
    {
      "inputs": [],
      "name": "lockedFunds",
      "outputs": [
        {
          "internalType": "uint256",
          "name": "",
          "type": "uint256"
        }
      ],
      "stateMutability": "view",
      "type": "function"
    },
    {
      "inputs": [],
      "name": "nextProposalId",
      "outputs": [
        {
          "internalType": "uint256",
          "name": "",
          "type": "uint256"
        }
      ],
      "stateMutability": "view",
      "type": "function"
    },
    {
      "inputs": [
        {
          "internalType": "uint256",
          "name": "",
          "type": "uint256"
        }
      ],
      "name": "proposals",
      "outputs": [
        {
          "internalType": "uint256",
          "name": "id",
          "type": "uint256"
        },
        {
          "internalType": "string",
          "name": "name",
          "type": "string"
        },
        {
          "internalType": "uint256",
          "name": "amount",
          "type": "uint256"
        },
        {
          "internalType": "address payable",
          "name": "recipient",
          "type": "address"
        },
        {
          "internalType": "uint256",
          "name": "votesFor",
          "type": "uint256"
        },
        {
          "internalType": "uint256",
          "name": "votesAgainst",
          "type": "uint256"
        },
        {
          "internalType": "uint256",
          "name": "end",
          "type": "uint256"
        },
        {
          "internalType": "bool",
          "name": "executed",
          "type": "bool"
        }
      ],
      "stateMutability": "view",
      "type": "function"
    },
    {
      "inputs": [],
      "name": "quorum",
      "outputs": [
        {
          "internalType": "uint256",
          "name": "",
          "type": "uint256"
        }
      ],
      "stateMutability": "view",
      "type": "function"
    },
    {
      "inputs": [
        {
          "internalType": "uint256",
          "name": "_amount",
          "type": "uint256"
        }
      ],
      "name": "redeemShares",
      "outputs": [],
      "stateMutability": "nonpayable",
      "type": "function"
    },
    {
      "inputs": [
        {
          "internalType": "address",
          "name": "",
          "type": "address"
        }
      ],
      "name": "shares",
      "outputs": [
        {
          "internalType": "uint256",
          "name": "",
          "type": "uint256"
        }
      ],
      "stateMutability": "view",
      "type": "function"
    },
    {
      "inputs": [],
      "name": "totalShares",
      "outputs": [
        {
          "internalType": "uint256",
          "name": "",
          "type": "uint256"
        }
      ],
      "stateMutability": "view",
      "type": "function"
    },
    {
      "inputs": [
        {
          "internalType": "uint256",
          "name": "amount",
          "type": "uint256"
        },
        {
          "internalType": "address",
          "name": "to",
          "type": "address"
        }
      ],
      "name": "transferShares",
      "outputs": [],
      "stateMutability": "nonpayable",
      "type": "function"
    },
    {
      "inputs": [
        {
          "internalType": "uint256",
          "name": "proposalId",
          "type": "uint256"
        },
        {
          "internalType": "bool",
          "name": "userVote",
          "type": "bool"
        }
      ],
      "name": "vote",
      "outputs": [],
      "stateMutability": "nonpayable",
      "type": "function"
    },
    {
      "inputs": [],
      "name": "voteTime",
      "outputs": [
        {
          "internalType": "uint256",
          "name": "",
          "type": "uint256"
        }
      ],
      "stateMutability": "view",
      "type": "function"
    },
    {
      "inputs": [
        {
          "internalType": "address",
          "name": "",
          "type": "address"
        },
        {
          "internalType": "uint256",
          "name": "",
          "type": "uint256"
        }
      ],
      "name": "votes",
      "outputs": [
        {
          "internalType": "bool",
          "name": "",
          "type": "bool"
        }
      ],
      "stateMutability": "view",
      "type": "function"
    },
    {
      "inputs": [
        {
          "internalType": "uint256",
          "name": "amount",
          "type": "uint256"
        },
        {
          "internalType": "address payable",
          "name": "to",
          "type": "address"
        }
      ],
      "name": "withdrawFunds",
      "outputs": [],
      "stateMutability": "nonpayable",
      "type": "function"
    }
  ],
  "bytecode": "0x60806040523480156200001157600080fd5b506040516200293038038062002930833981810160405281019062000037919062000156565b60008111801562000049575061271081105b6200008b576040517f08c379a0000000000000000000000000000000000000000000000000000000008152600401620000829062000239565b60405180910390fd5b62015180836200009c91906200028a565b42620000a99190620002d5565b600781905550610e1082620000bf91906200028a565b60098190555080600a8190555033600b60006101000a81548173ffffffffffffffffffffffffffffffffffffffff021916908373ffffffffffffffffffffffffffffffffffffffff16021790555050505062000310565b600080fd5b6000819050919050565b62000130816200011b565b81146200013c57600080fd5b50565b600081519050620001508162000125565b92915050565b60008060006060848603121562000172576200017162000116565b5b600062000182868287016200013f565b935050602062000195868287016200013f565b9250506040620001a8868287016200013f565b9150509250925092565b600082825260208201905092915050565b7f71756f72756d206d757374206265206265747765656e203020616e642031303060008201527f3030000000000000000000000000000000000000000000000000000000000000602082015250565b600062000221602283620001b2565b91506200022e82620001c3565b604082019050919050565b60006020820190508181036000830152620002548162000212565b9050919050565b7f4e487b7100000000000000000000000000000000000000000000000000000000600052601160045260246000fd5b600062000297826200011b565b9150620002a4836200011b565b9250828202620002b4816200011b565b91508282048414831517620002ce57620002cd6200025b565b5b5092915050565b6000620002e2826200011b565b9150620002ef836200011b565b92508282019050808211156200030a57620003096200025b565b5b92915050565b61261080620003206000396000f3fe6080604052600436106101145760003560e01c8063744bfe61116100a0578063c1cbbca711610064578063c1cbbca7146103a6578063c9d27afe146103c2578063ce7c2ac2146103eb578063d151b51614610428578063f851a4401461045357610114565b8063744bfe61146102c15780639f2524ee146102ea578063adba980414610327578063b8afaa4814610350578063bcf93dd61461037b57610114565b80633a98ef39116100e75780633a98ef39146101dc57806345579b1f1461020757806346fcff4c146102305780636ac1e01f1461025b5780636f7bc9be1461028457610114565b8063013cf08b146101195780630d61b5191461015d5780631703a018146101865780632ab09d14146101b1575b600080fd5b34801561012557600080fd5b50610140600480360381019061013b919061153b565b61047e565b604051610154989796959493929190611663565b60405180910390f35b34801561016957600080fd5b50610184600480360381019061017f919061153b565b61057b565b005b34801561019257600080fd5b5061019b610781565b6040516101a891906116e8565b60405180910390f35b3480156101bd57600080fd5b506101c6610787565b6040516101d391906116e8565b60405180910390f35b3480156101e857600080fd5b506101f161078d565b6040516101fe91906116e8565b60405180910390f35b34801561021357600080fd5b5061022e60048036038101906102299190611741565b610793565b005b34801561023c57600080fd5b5061024561099a565b60405161025291906116e8565b60405180910390f35b34801561026757600080fd5b50610282600480360381019061027d91906118e2565b6109a0565b005b34801561029057600080fd5b506102ab60048036038101906102a69190611951565b610bf5565b6040516102b8919061197e565b60405180910390f35b3480156102cd57600080fd5b506102e860048036038101906102e39190611999565b610c15565b005b3480156102f657600080fd5b50610311600480360381019061030c91906119d9565b610cb3565b60405161031e919061197e565b60405180910390f35b34801561033357600080fd5b5061034e6004803603810190610349919061153b565b610ce2565b005b34801561035c57600080fd5b50610365610f13565b60405161037291906116e8565b60405180910390f35b34801561038757600080fd5b50610390610f19565b60405161039d91906116e8565b60405180910390f35b6103c060048036038101906103bb919061153b565b610f1f565b005b3480156103ce57600080fd5b506103e960048036038101906103e49190611a45565b61110d565b005b3480156103f757600080fd5b50610412600480360381019061040d9190611951565b6113d6565b60405161041f91906116e8565b60405180910390f35b34801561043457600080fd5b5061043d6113ee565b60405161044a91906116e8565b60405180910390f35b34801561045f57600080fd5b506104686113f4565b6040516104759190611a94565b60405180910390f35b60036020528060005260406000206000915090508060000154908060010180546104a790611ade565b80601f01602080910402602001604051908101604052809291908181526020018280546104d390611ade565b80156105205780601f106104f557610100808354040283529160200191610520565b820191906000526020600020905b81548152906001019060200180831161050357829003601f168201915b5050505050908060020154908060030160009054906101000a900473ffffffffffffffffffffffffffffffffffffffff16908060040154908060050154908060060154908060070160009054906101000a900460ff16905088565b600b60009054906101000a900473ffffffffffffffffffffffffffffffffffffffff1673ffffffffffffffffffffffffffffffffffffffff163373ffffffffffffffffffffffffffffffffffffffff161461060b576040517f08c379a000000000000000000000000000000000000000000000000000000000815260040161060290611b5b565b60405180910390fd5b60006003600083815260200190815260200160002090508060060154421015610669576040517f08c379a000000000000000000000000000000000000000000000000000000000815260040161066090611bed565b60405180910390fd5b600015158160070160009054906101000a900460ff161515146106c1576040517f08c379a00000000000000000000000000000000000000000000000000000000081526004016106b890611c7f565b60405180910390fd5b600a5461271060045483600401546106d99190611cfd565b6106e39190611d2e565b1061073e5761071a81600201548260030160009054906101000a900473ffffffffffffffffffffffffffffffffffffffff1661141a565b61073381600201546006546114c590919063ffffffff16565b60068190555061077d565b61075781600201546006546114c590919063ffffffff16565b60068190555061077681600201546006546114db90919063ffffffff16565b6005819055505b5050565b600a5481565b60085481565b60045481565b81600160003373ffffffffffffffffffffffffffffffffffffffff1673ffffffffffffffffffffffffffffffffffffffff168152602001908152602001600020541015610815576040517f08c379a000000000000000000000000000000000000000000000000000000000815260040161080c90611dbc565b60405180910390fd5b61086782600160003373ffffffffffffffffffffffffffffffffffffffff1673ffffffffffffffffffffffffffffffffffffffff168152602001908152602001600020546114c590919063ffffffff16565b600160003373ffffffffffffffffffffffffffffffffffffffff1673ffffffffffffffffffffffffffffffffffffffff168152602001908152602001600020819055506108fc82600160008473ffffffffffffffffffffffffffffffffffffffff1673ffffffffffffffffffffffffffffffffffffffff168152602001908152602001600020546114db90919063ffffffff16565b600160008373ffffffffffffffffffffffffffffffffffffffff1673ffffffffffffffffffffffffffffffffffffffff1681526020019081526020016000208190555060016000808373ffffffffffffffffffffffffffffffffffffffff1673ffffffffffffffffffffffffffffffffffffffff16815260200190815260200160002060006101000a81548160ff0219169083151502179055505050565b60055481565b600115156000803373ffffffffffffffffffffffffffffffffffffffff1673ffffffffffffffffffffffffffffffffffffffff16815260200190815260200160002060009054906101000a900460ff16151514610a32576040517f08c379a0000000000000000000000000000000000000000000000000000000008152600401610a2990611e28565b60405180910390fd5b816005541015610a77576040517f08c379a0000000000000000000000000000000000000000000000000000000008152600401610a6e90611e94565b60405180910390fd5b60405180610100016040528060085481526020018481526020018381526020018273ffffffffffffffffffffffffffffffffffffffff168152602001600081526020016000815260200160095442610acf9190611eb4565b815260200160001515815250600360006008548152602001908152602001600020600082015181600001556020820151816001019081610b0f9190612094565b506040820151816002015560608201518160030160006101000a81548173ffffffffffffffffffffffffffffffffffffffff021916908373ffffffffffffffffffffffffffffffffffffffff1602179055506080820151816004015560a0820151816005015560c0820151816006015560e08201518160070160006101000a81548160ff021916908315150217905550905050610bb7826005546114db90919063ffffffff16565b600581905550610bd2826006546114db90919063ffffffff16565b60068190555060086000815480929190610beb90612166565b9190505550505050565b60006020528060005260406000206000915054906101000a900460ff1681565b600b60009054906101000a900473ffffffffffffffffffffffffffffffffffffffff1673ffffffffffffffffffffffffffffffffffffffff163373ffffffffffffffffffffffffffffffffffffffff1614610ca5576040517f08c379a0000000000000000000000000000000000000000000000000000000008152600401610c9c90611b5b565b60405180910390fd5b610caf828261141a565b5050565b60026020528160005260406000206020528060005260406000206000915091509054906101000a900460ff1681565b80600160003373ffffffffffffffffffffffffffffffffffffffff1673ffffffffffffffffffffffffffffffffffffffff168152602001908152602001600020541015610d64576040517f08c379a0000000000000000000000000000000000000000000000000000000008152600401610d5b90611dbc565b60405180910390fd5b806005541015610da9576040517f08c379a0000000000000000000000000000000000000000000000000000000008152600401610da0906121fa565b60405180910390fd5b80471015610dec576040517f08c379a0000000000000000000000000000000000000000000000000000000008152600401610de390612266565b60405180910390fd5b610e3e81600160003373ffffffffffffffffffffffffffffffffffffffff1673ffffffffffffffffffffffffffffffffffffffff168152602001908152602001600020546114c590919063ffffffff16565b600160003373ffffffffffffffffffffffffffffffffffffffff1673ffffffffffffffffffffffffffffffffffffffff16815260200190815260200160002081905550610e96816005546114c590919063ffffffff16565b60056000828254610ea79190612286565b92505081905550610ec3816004546114c590919063ffffffff16565b6004819055503373ffffffffffffffffffffffffffffffffffffffff166108fc829081150290604051600060405180830381858888f19350505050158015610f0f573d6000803e3d6000fd5b5050565b60065481565b60095481565b6007544210610f63576040517f08c379a0000000000000000000000000000000000000000000000000000000008152600401610f5a9061232c565b60405180910390fd5b60008111610fa6576040517f08c379a0000000000000000000000000000000000000000000000000000000008152600401610f9d906123be565b60405180910390fd5b803414610fe8576040517f08c379a0000000000000000000000000000000000000000000000000000000008152600401610fdf9061242a565b60405180910390fd5b60016000803373ffffffffffffffffffffffffffffffffffffffff1673ffffffffffffffffffffffffffffffffffffffff16815260200190815260200160002060006101000a81548160ff02191690831515021790555061109181600160003373ffffffffffffffffffffffffffffffffffffffff1673ffffffffffffffffffffffffffffffffffffffff168152602001908152602001600020546114db90919063ffffffff16565b600160003373ffffffffffffffffffffffffffffffffffffffff1673ffffffffffffffffffffffffffffffffffffffff168152602001908152602001600020819055506110e9816004546114db90919063ffffffff16565b600481905550611104816005546114db90919063ffffffff16565b60058190555050565b600115156000803373ffffffffffffffffffffffffffffffffffffffff1673ffffffffffffffffffffffffffffffffffffffff16815260200190815260200160002060009054906101000a900460ff1615151461119f576040517f08c379a000000000000000000000000000000000000000000000000000000000815260040161119690611e28565b60405180910390fd5b600060036000848152602001908152602001600020905060001515600260003373ffffffffffffffffffffffffffffffffffffffff1673ffffffffffffffffffffffffffffffffffffffff168152602001908152602001600020600085815260200190815260200160002060009054906101000a900460ff1615151461125a576040517f08c379a0000000000000000000000000000000000000000000000000000000008152600401611251906124bc565b60405180910390fd5b806006015442106112a0576040517f08c379a00000000000000000000000000000000000000000000000000000000081526004016112979061254e565b60405180910390fd5b6001600260003373ffffffffffffffffffffffffffffffffffffffff1673ffffffffffffffffffffffffffffffffffffffff168152602001908152602001600020600085815260200190815260200160002060006101000a81548160ff021916908315150217905550811561137257611365600160003373ffffffffffffffffffffffffffffffffffffffff1673ffffffffffffffffffffffffffffffffffffffff1681526020019081526020016000205482600401546114db90919063ffffffff16565b81600401819055506113d1565b6113c8600160003373ffffffffffffffffffffffffffffffffffffffff1673ffffffffffffffffffffffffffffffffffffffff1681526020019081526020016000205482600501546114db90919063ffffffff16565b81600501819055505b505050565b60016020528060005260406000206000915090505481565b60075481565b600b60009054906101000a900473ffffffffffffffffffffffffffffffffffffffff1681565b60055482111561145f576040517f08c379a0000000000000000000000000000000000000000000000000000000008152600401611456906125ba565b60405180910390fd5b611474826005546114c590919063ffffffff16565b6005819055508073ffffffffffffffffffffffffffffffffffffffff166108fc839081150290604051600060405180830381858888f193505050501580156114c0573d6000803e3d6000fd5b505050565b600081836114d39190612286565b905092915050565b600081836114e99190611eb4565b905092915050565b6000604051905090565b600080fd5b600080fd5b6000819050919050565b61151881611505565b811461152357600080fd5b50565b6000813590506115358161150f565b92915050565b600060208284031215611551576115506114fb565b5b600061155f84828501611526565b91505092915050565b61157181611505565b82525050565b600081519050919050565b600082825260208201905092915050565b60005b838110156115b1578082015181840152602081019050611596565b60008484015250505050565b6000601f19601f8301169050919050565b60006115d982611577565b6115e38185611582565b93506115f3818560208601611593565b6115fc816115bd565b840191505092915050565b600073ffffffffffffffffffffffffffffffffffffffff82169050919050565b600061163282611607565b9050919050565b61164281611627565b82525050565b60008115159050919050565b61165d81611648565b82525050565b600061010082019050611679600083018b611568565b818103602083015261168b818a6115ce565b905061169a6040830189611568565b6116a76060830188611639565b6116b46080830187611568565b6116c160a0830186611568565b6116ce60c0830185611568565b6116db60e0830184611654565b9998505050505050505050565b60006020820190506116fd6000830184611568565b92915050565b600061170e82611607565b9050919050565b61171e81611703565b811461172957600080fd5b50565b60008135905061173b81611715565b92915050565b60008060408385031215611758576117576114fb565b5b600061176685828601611526565b92505060206117778582860161172c565b9150509250929050565b600080fd5b600080fd5b7f4e487b7100000000000000000000000000000000000000000000000000000000600052604160045260246000fd5b6117c3826115bd565b810181811067ffffffffffffffff821117156117e2576117e161178b565b5b80604052505050565b60006117f56114f1565b905061180182826117ba565b919050565b600067ffffffffffffffff8211156118215761182061178b565b5b61182a826115bd565b9050602081019050919050565b82818337600083830152505050565b600061185961185484611806565b6117eb565b90508281526020810184848401111561187557611874611786565b5b611880848285611837565b509392505050565b600082601f83011261189d5761189c611781565b5b81356118ad848260208601611846565b91505092915050565b6118bf81611627565b81146118ca57600080fd5b50565b6000813590506118dc816118b6565b92915050565b6000806000606084860312156118fb576118fa6114fb565b5b600084013567ffffffffffffffff81111561191957611918611500565b5b61192586828701611888565b935050602061193686828701611526565b9250506040611947868287016118cd565b9150509250925092565b600060208284031215611967576119666114fb565b5b60006119758482850161172c565b91505092915050565b60006020820190506119936000830184611654565b92915050565b600080604083850312156119b0576119af6114fb565b5b60006119be85828601611526565b92505060206119cf858286016118cd565b9150509250929050565b600080604083850312156119f0576119ef6114fb565b5b60006119fe8582860161172c565b9250506020611a0f85828601611526565b9150509250929050565b611a2281611648565b8114611a2d57600080fd5b50565b600081359050611a3f81611a19565b92915050565b60008060408385031215611a5c57611a5b6114fb565b5b6000611a6a85828601611526565b9250506020611a7b85828601611a30565b9150509250929050565b611a8e81611703565b82525050565b6000602082019050611aa96000830184611a85565b92915050565b7f4e487b7100000000000000000000000000000000000000000000000000000000600052602260045260246000fd5b60006002820490506001821680611af657607f821691505b602082108103611b0957611b08611aaf565b5b50919050565b7f6f6e6c792061646d696e00000000000000000000000000000000000000000000600082015250565b6000611b45600a83611582565b9150611b5082611b0f565b602082019050919050565b60006020820190508181036000830152611b7481611b38565b9050919050565b7f63616e6e6f7420657865637574652070726f706f73616c206265666f7265206560008201527f6e64206461746500000000000000000000000000000000000000000000000000602082015250565b6000611bd7602783611582565b9150611be282611b7b565b604082019050919050565b60006020820190508181036000830152611c0681611bca565b9050919050565b7f63616e6e6f7420657865637574652070726f706f73616c20616c72656164792060008201527f6578656375746564000000000000000000000000000000000000000000000000602082015250565b6000611c69602883611582565b9150611c7482611c0d565b604082019050919050565b60006020820190508181036000830152611c9881611c5c565b9050919050565b7f4e487b7100000000000000000000000000000000000000000000000000000000600052601260045260246000fd5b7f4e487b7100000000000000000000000000000000000000000000000000000000600052601160045260246000fd5b6000611d0882611505565b9150611d1383611505565b925082611d2357611d22611c9f565b5b828204905092915050565b6000611d3982611505565b9150611d4483611505565b9250828202611d5281611505565b91508282048414831517611d6957611d68611cce565b5b5092915050565b7f6e6f7420656e6f75676820736861726573000000000000000000000000000000600082015250565b6000611da6601183611582565b9150611db182611d70565b602082019050919050565b60006020820190508181036000830152611dd581611d99565b9050919050565b7f6f6e6c7920696e766573746f7273000000000000000000000000000000000000600082015250565b6000611e12600e83611582565b9150611e1d82611ddc565b602082019050919050565b60006020820190508181036000830152611e4181611e05565b9050919050565b7f616d6f756e7420746f6f20626967000000000000000000000000000000000000600082015250565b6000611e7e600e83611582565b9150611e8982611e48565b602082019050919050565b60006020820190508181036000830152611ead81611e71565b9050919050565b6000611ebf82611505565b9150611eca83611505565b9250828201905080821115611ee257611ee1611cce565b5b92915050565b60008190508160005260206000209050919050565b60006020601f8301049050919050565b600082821b905092915050565b600060088302611f4a7fffffffffffffffffffffffffffffffffffffffffffffffffffffffffffffffff82611f0d565b611f548683611f0d565b95508019841693508086168417925050509392505050565b6000819050919050565b6000611f91611f8c611f8784611505565b611f6c565b611505565b9050919050565b6000819050919050565b611fab83611f76565b611fbf611fb782611f98565b848454611f1a565b825550505050565b600090565b611fd4611fc7565b611fdf818484611fa2565b505050565b5b8181101561200357611ff8600082611fcc565b600181019050611fe5565b5050565b601f8211156120485761201981611ee8565b61202284611efd565b81016020851015612031578190505b61204561203d85611efd565b830182611fe4565b50505b505050565b600082821c905092915050565b600061206b6000198460080261204d565b1980831691505092915050565b6000612084838361205a565b9150826002028217905092915050565b61209d82611577565b67ffffffffffffffff8111156120b6576120b561178b565b5b6120c08254611ade565b6120cb828285612007565b600060209050601f8311600181146120fe57600084156120ec578287015190505b6120f68582612078565b86555061215e565b601f19841661210c86611ee8565b60005b828110156121345784890151825560018201915060208501945060208101905061210f565b86831015612151578489015161214d601f89168261205a565b8355505b6001600288020188555050505b505050505050565b600061217182611505565b91507fffffffffffffffffffffffffffffffffffffffffffffffffffffffffffffffff82036121a3576121a2611cce565b5b600182019050919050565b7f6e6f7420656e6f75676820617661696c61626c652066756e6473000000000000600082015250565b60006121e4601a83611582565b91506121ef826121ae565b602082019050919050565b60006020820190508181036000830152612213816121d7565b9050919050565b7f496e73756666696369656e7420636f6e74726163742062616c616e6365000000600082015250565b6000612250601d83611582565b915061225b8261221a565b602082019050919050565b6000602082019050818103600083015261227f81612243565b9050919050565b600061229182611505565b915061229c83611505565b92508282039050818111156122b4576122b3611cce565b5b92915050565b7f63616e6e6f7420636f6e7472696275746520616674657220636f6e747269627560008201527f74696f6e456e6400000000000000000000000000000000000000000000000000602082015250565b6000612316602783611582565b9150612321826122ba565b604082019050919050565b6000602082019050818103600083015261234581612309565b9050919050565b7f506c6561736520656e74657220616e20616d6f756e742067726561746572207460008201527f68616e207a65726f000000000000000000000000000000000000000000000000602082015250565b60006123a8602883611582565b91506123b38261234c565b604082019050919050565b600060208201905081810360008301526123d78161239b565b9050919050565b7f496e636f727265637420616d6f756e742073656e740000000000000000000000600082015250565b6000612414601583611582565b915061241f826123de565b602082019050919050565b6000602082019050818103600083015261244381612407565b9050919050565b7f696e766573746f722063616e206f6e6c7920766f7465206f6e636520666f722060008201527f612070726f706f73616c00000000000000000000000000000000000000000000602082015250565b60006124a6602a83611582565b91506124b18261244a565b604082019050919050565b600060208201905081810360008301526124d581612499565b9050919050565b7f63616e206f6e6c7920766f746520756e74696c2070726f706f73616c20656e6460008201527f2064617465000000000000000000000000000000000000000000000000000000602082015250565b6000612538602583611582565b9150612543826124dc565b604082019050919050565b600060208201905081810360008301526125678161252b565b9050919050565b7f6e6f7420656e6f75676820617661696c61626c6546756e647300000000000000600082015250565b60006125a4601983611582565b91506125af8261256e565b602082019050919050565b600060208201905081810360008301526125d381612597565b905091905056fea26469706673582212206ee9933e4fda84f375108680c43d6be361b9b01ec2a281814f8ec409cd5d6e5464736f6c63430008180033",
  "linkReferences": {},
  "deployedLinkReferences": {}
}